:100000000C945D000C9485000C9485000C94850084
:100010000C9485000C9485000C9485000C9485004C
:100020000C9485000C9485000C9485000C9485003C
:100030000C9485000C9485000C9485000C9485002C
:100040000C948C020C9485000C9485000C94850013
:100050000C9485000C9485000C9485000C9485000C
:100060000C9485000C94850000000008000201003B
:100070000003040700000000000000000000000072
:10008000250028002B0000000000240027002A0083
:10009000040404040404040402020202020203032E
:1000A0000303030301020408102040800102040836
:1000B0001020010204081020610311241FBECFEF9D
:1000C000D8E0DEBFCDBF11E0A0E0B1E0EEE0F7E0A8
:1000D00002C005900D92A233B107D9F721E0A2E347
:1000E000B1E001C01D92A335B207E1F710E0CDE504
:1000F000D0E004C02197FE010E947F03CC35D107D8
:10010000C9F70E94D6020C9485030C94000090E07D
:10011000FC01EC55FF4F249180579F4FFC018491C7
:10012000882399F090E0880F991FFC01EA57FF4F50
:10013000A591B491FC01E458FF4F859194918FB73C
:10014000F894EC91E22BEC938FBF0895AF92BF929D
:10015000CF92DF92EF92FF920F931F93CF93DF9393
:100160006C017B018B01040F151FEB015E01AE18C2
:10017000BF08C017D10759F06991D601ED91FC91E4
:100180000190F081E02DC6010995892B79F7C50111
:10019000DF91CF911F910F91FF90EF90DF90CF9063
:1001A000BF90AF90089590E0FC01E859FF4F249173
:1001B000FC01EC55FF4F3491FC01E057FF4FE491F7
:1001C000EE23C9F0222339F0233001F1A8F42130C5
:1001D00019F1223029F1F0E0EE0FFF1FE458FF4F34
:1001E000A591B4918FB7F894EC91611126C0309528
:1001F0003E233C938FBF08952730A9F02830C9F0E3
:10020000243049F7809180008F7D03C08091800069
:100210008F7780938000DFCF84B58F7784BDDBCF6D
:1002200084B58F7DFBCF8091B0008F778093B00035
:10023000D2CF8091B0008F7DF9CF3E2BDACF3FB780
:10024000F8948091370190913801A0913901B091D3
:100250003A0126B5A89B05C02F3F19F00196A11DB4
:10026000B11D3FBFBA2FA92F982F8827BC01CD0100
:10027000620F711D811D911D42E0660F771F881F5F
:10028000991F4A95D1F70895089590E080E0089568
:10029000CF93DF93EC0160E08E810E94D30061E098
:1002A0008E810E94D30060E08E810E94D3008BE893
:1002B00091E00197F1F7DF91CF910895CF92DF920E
:1002C000EF92FF920F931F93CF93DF936C017C010A
:1002D00087E0E80EF11CD0E0C0E0062F10E0B80186
:1002E0000C2E02C0759567950A94E2F76170F701CC
:1002F00081917F010E94D3002196C430D10579F706
:10030000C601DF91CF911F910F91FF90EF90DF9089
:10031000CF900C944801CF92DF92EF92FF920F930F
:100320001F93CF93DF93EC01F62E642F8C810E94F4
:10033000D3008D818F3F19F060E00E94D3000F2D14
:1003400010E08F8584FF25C06E0187E0C80ED11CA8
:10035000F12CE12CB8010E2C02C0759567950A941A
:10036000E2F76170F60181916F010E94D300FFEF07
:10037000EF1AFF0A88E0E816F10461F7CE01DF9179
:10038000CF911F910F91FF90EF90DF90CF900C9441
:100390004801B80184E0759567958A95E1F7CE012B
:1003A0000E945E016F2DCE01DF91CF911F910F91C1
:1003B000FF90EF90DF90CF900C945E0140E0682FAB
:1003C0008BE391E00C948B01CF93DF93823029F47F
:1003D00090914A01986090934A0180934E01109247
:1003E0004F0180E48093500180E18093510180E5CA
:1003F0008093520180913F010E94870080914001CB
:100400008F3F11F00E948700809141010E94870078
:10041000CBE3D1E09E012B53314080914A0184FD12
:100420000AC084E090E02196281739073CF48E81B9
:100430000E948700EFCF88E090E0F5CF8BE39DE04E
:100440000197F1F760E080913F010E94D30060E0E6
:10045000809141010E94D300809140018F3F19F0AB
:1004600060E00E94D30080914A0184FD39C063E0BE
:100470008BE391E00E945E01CBE4D6E4CE010197CC
:10048000F1F763E08BE391E00E945E012197F1F7C1
:1004900063E08BE391E00E945E0183E592E00197C7
:1004A000F1F762E08BE391E00E945E0180914A01E6
:1004B00080620E94DE0184E080934B018CE00E9408
:1004C000DE0181E00E94DE018BE39FE10197F1F7FD
:1004D00082E080934C0186E0DF91CF910C94DE01A5
:1004E00080620E94DE018BE496E40197F1F780912F
:1004F0004A0180620E94DE0183E592E00197F1F7F4
:1005000080914A0180620E94DE01D0CF41E00E94CA
:100510008B0181E090E008951F920F920FB60F9229
:1005200011242F933F938F939F93AF93BF93809109
:10053000330190913401A0913501B0913601309191
:10054000320123E0230F2D3758F50196A11DB11D6F
:10055000209332018093330190933401A0933501AD
:10056000B09336018091370190913801A091390103
:10057000B0913A010196A11DB11D8093370190936E
:100580003801A0933901B0933A01BF91AF919F9187
:100590008F913F912F910F900FBE0F901F90189544
:1005A00026E8230F0296A11DB11DD2CF789484B501
:1005B000826084BD84B5816084BD85B5826085BD5F
:1005C00085B5816085BD80916E00816080936E00ED
:1005D00010928100809181008260809381008091DF
:1005E0008100816080938100809180008160809390
:1005F00080008091B10084608093B1008091B00050
:1006000081608093B00080917A00846080937A004A
:1006100080917A00826080937A0080917A00816074
:1006200080937A0080917A00806880937A0010929B
:10063000C10082E00E94E401C0E0D0E0E1E08091EE
:100640004E018111E0E0E195F0E0E55CFE4F848928
:1006500080680E94DE0145E250E06CE071E08BE3CF
:1006600091E00E94A60088E10E94DE010E941F0125
:100670006B017C0184EF882E99249394A12CB12CDA
:100680000E941F016C197D098E099F09683E734005
:1006900081059105A8F321E0821A9108A108B1080B
:1006A00088EEC80E83E0D81EE11CF11C8114910471
:1006B000A104B10429F7209709F4C0CF0E940000DB
:1006C000BDCFEBE3F1E01382128284E091E09183ED
:1006D00080838DE084838FEF85838CE086838BE03D
:1006E00087838AE0808789E0818788E08287138614
:1006F000148615861686178681E00C94E401EE0FA9
:0E070000FF1F0590F491E02D0994F894FFCFAF
:10070E00000000008602A60045014401202054721C
:10071E0061696E204E6F3A203132363736202D20E9
:10072E004B6F7661692053462045787072657373FE
:02073E00200099
:00000001FF
